reading from file tracerouteNew_1.pcap, link-type EN10MB (Ethernet)
10:13:04.625862 ARP, Request who-has 10.0.1.1 tell 10.0.1.100, length 28
	0x0000:  0001 0800 0604 0001 1ae8 72b2 b4a8 0a00  ..........r.....
	0x0010:  0164 0000 0000 0000 0a00 0101            .d..........
10:13:04.626013 ARP, Reply 10.0.1.1 is-at de:7b:e7:0f:3b:fc, length 28
	0x0000:  0001 0800 0604 0002 de7b e70f 3bfc 0a00  .........{..;...
	0x0010:  0101 1ae8 72b2 b4a8 0a00 0164            ....r......d
10:13:04.648102 IP 10.0.1.100.54669 > 192.168.2.2.33437: UDP, length 32
	0x0000:  4500 003c 11d1 0000 0211 d8d2 0a00 0164  E..<...........d
	0x0010:  c0a8 0202 d58d 829d 0028 e45f 4041 4243  .........(._@ABC
	0x0020:  4445 4647 4849 4a4b 4c4d 4e4f 5051 5253  DEFGHIJKLMNOPQRS
	0x0030:  5455 5657 5859 5a5b 5c5d 5e5f            TUVWXYZ[\]^_
10:13:04.648283 ARP, Request who-has 192.168.2.2 (ff:ff:ff:ff:ff:ff) tell 192.168.2.1, length 28
	0x0000:  0001 0800 0604 0001 7e3f 98d9 ba6c c0a8  ........~?...l..
	0x0010:  0201 ffff ffff ffff c0a8 0202            ............
10:13:04.684195 IP 10.0.1.100.42905 > 192.168.2.2.33439: UDP, length 32
	0x0000:  4500 003c 11d3 0000 0211 d8d0 0a00 0164  E..<...........d
	0x0010:  c0a8 0202 a799 829f 0028 1252 4041 4243  .........(.R@ABC
	0x0020:  4445 4647 4849 4a4b 4c4d 4e4f 5051 5253  DEFGHIJKLMNOPQRS
	0x0030:  5455 5657 5859 5a5b 5c5d 5e5f            TUVWXYZ[\]^_
10:13:04.684398 IP 10.0.1.100.35589 > 192.168.2.2.33446: UDP, length 32
	0x0000:  4500 003c 11da 0000 0511 d5c9 0a00 0164  E..<...........d
	0x0010:  c0a8 0202 8b05 82a6 0028 2edf 4041 4243  .........(..@ABC
	0x0020:  4445 4647 4849 4a4b 4c4d 4e4f 5051 5253  DEFGHIJKLMNOPQRS
	0x0030:  5455 5657 5859 5a5b 5c5d 5e5f            TUVWXYZ[\]^_
10:13:04.684455 IP 10.0.1.100.39339 > 192.168.2.2.33448: UDP, length 32
	0x0000:  4500 003c 11dc 0000 0511 d5c7 0a00 0164  E..<...........d
	0x0010:  c0a8 0202 99ab 82a8 0028 2037 4041 4243  .........(.7@ABC
	0x0020:  4445 4647 4849 4a4b 4c4d 4e4f 5051 5253  DEFGHIJKLMNOPQRS
	0x0030:  5455 5657 5859 5a5b 5c5d 5e5f            TUVWXYZ[\]^_
10:13:04.684491 IP 10.0.1.100.57173 > 192.168.2.2.33444: UDP, length 32
	0x0000:  4500 003c 11d8 0000 0411 d6cb 0a00 0164  E..<...........d
	0x0010:  c0a8 0202 df55 82a4 0028 da90 4041 4243  .....U...(..@ABC
	0x0020:  4445 4647 4849 4a4b 4c4d 4e4f 5051 5253  DEFGHIJKLMNOPQRS
	0x0030:  5455 5657 5859 5a5b 5c5d 5e5f            TUVWXYZ[\]^_
10:13:04.684530 IP 10.0.1.100.48436 > 192.168.2.2.33440: UDP, length 32
	0x0000:  4500 003c 11d4 0000 0311 d7cf 0a00 0164  E..<...........d
	0x0010:  c0a8 0202 bd34 82a0 0028 fcb5 4041 4243  .....4...(..@ABC
	0x0020:  4445 4647 4849 4a4b 4c4d 4e4f 5051 5253  DEFGHIJKLMNOPQRS
	0x0030:  5455 5657 5859 5a5b 5c5d 5e5f            TUVWXYZ[\]^_
10:13:04.684578 IP 10.0.1.100.37757 > 192.168.2.2.33438: UDP, length 32
	0x0000:  4500 003c 11d2 0000 0211 d8d1 0a00 0164  E..<...........d
	0x0010:  c0a8 0202 937d 829e 0028 266f 4041 4243  .....}...(&o@ABC
	0x0020:  4445 4647 4849 4a4b 4c4d 4e4f 5051 5253  DEFGHIJKLMNOPQRS
	0x0030:  5455 5657 5859 5a5b 5c5d 5e5f            TUVWXYZ[\]^_
10:13:04.684614 IP 10.0.1.100.60714 > 192.168.2.2.33442: UDP, length 32
	0x0000:  4500 003c 11d6 0000 0311 d7cd 0a00 0164  E..<...........d
	0x0010:  c0a8 0202 ed2a 82a2 0028 ccbd 4041 4243  .....*...(..@ABC
	0x0020:  4445 4647 4849 4a4b 4c4d 4e4f 5051 5253  DEFGHIJKLMNOPQRS
	0x0030:  5455 5657 5859 5a5b 5c5d 5e5f            TUVWXYZ[\]^_
10:13:04.684647 IP 10.0.1.100.51149 > 192.168.2.2.33449: UDP, length 32
	0x0000:  4500 003c 11dd 0000 0611 d4c6 0a00 0164  E..<...........d
	0x0010:  c0a8 0202 c7cd 82a9 0028 f213 4041 4243  .........(..@ABC
	0x0020:  4445 4647 4849 4a4b 4c4d 4e4f 5051 5253  DEFGHIJKLMNOPQRS
	0x0030:  5455 5657 5859 5a5b 5c5d 5e5f            TUVWXYZ[\]^_
10:13:04.684680 IP 10.0.1.100.45367 > 192.168.2.2.33434: UDP, length 32
	0x0000:  4500 003c 11ce 0000 0111 d9d5 0a00 0164  E..<...........d
	0x0010:  c0a8 0202 b137 829a 0028 08b9 4041 4243  .....7...(..@ABC
	0x0020:  4445 4647 4849 4a4b 4c4d 4e4f 5051 5253  DEFGHIJKLMNOPQRS
	0x0030:  5455 5657 5859 5a5b 5c5d 5e5f            TUVWXYZ[\]^_
10:13:04.684785 IP 10.0.1.1 > 10.0.1.100: ICMP time exceeded in-transit, length 40
	0x0000:  4500 003c 0000 0000 4001 b5b0 0a00 0101  E..<....@.......
	0x0010:  0a00 0164 0b00 e9ff 0000 0000 0000 0000  ...d............
	0x0020:  0000 0000 0000 0000 0000 0000 0000 0000  ................
	0x0030:  0b00 0000 0000 0000 0000 0000            ............
10:13:04.684829 IP 10.0.1.100.40726 > 192.168.2.2.33435: UDP, length 32
	0x0000:  4500 003c 11cf 0000 0111 d9d4 0a00 0164  E..<...........d
	0x0010:  c0a8 0202 9f16 829b 0028 1ad9 4041 4243  .........(..@ABC
	0x0020:  4445 4647 4849 4a4b 4c4d 4e4f 5051 5253  DEFGHIJKLMNOPQRS
	0x0030:  5455 5657 5859 5a5b 5c5d 5e5f            TUVWXYZ[\]^_
10:13:04.684871 IP 10.0.1.1 > 10.0.1.100: ICMP time exceeded in-transit, length 40
	0x0000:  4500 003c 0000 0000 4001 49ea 0a00 0101  E..<....@.I.....
	0x0010:  0a00 0164 0b00 e9ff 0000 0000 0000 0000  ...d............
	0x0020:  0000 0000 0000 0000 0000 0000 0000 0000  ................
	0x0030:  0b00 0000 0000 0000 0000 0000            ............
10:13:04.684877 IP 10.0.1.100.34699 > 192.168.2.2.33441: UDP, length 32
	0x0000:  4500 003c 11d5 0000 0311 d7ce 0a00 0164  E..<...........d
	0x0010:  c0a8 0202 878b 82a1 0028 325e 4041 4243  .........(2^@ABC
	0x0020:  4445 4647 4849 4a4b 4c4d 4e4f 5051 5253  DEFGHIJKLMNOPQRS
	0x0030:  5455 5657 5859 5a5b 5c5d 5e5f            TUVWXYZ[\]^_
10:13:04.684929 IP 10.0.1.100.49896 > 192.168.2.2.33445: UDP, length 32
	0x0000:  4500 003c 11d9 0000 0411 d6ca 0a00 0164  E..<...........d
	0x0010:  c0a8 0202 c2e8 82a5 0028 f6fc 4041 4243  .........(..@ABC
	0x0020:  4445 4647 4849 4a4b 4c4d 4e4f 5051 5253  DEFGHIJKLMNOPQRS
	0x0030:  5455 5657 5859 5a5b 5c5d 5e5f            TUVWXYZ[\]^_
10:13:04.695230 IP 10.0.1.100.43756 > 192.168.2.2.33436: UDP, length 32
	0x0000:  4500 003c 11d0 0000 0111 d9d3 0a00 0164  E..<...........d
	0x0010:  c0a8 0202 aaec 829c 0028 0f02 4041 4243  .........(..@ABC
	0x0020:  4445 4647 4849 4a4b 4c4d 4e4f 5051 5253  DEFGHIJKLMNOPQRS
	0x0030:  5455 5657 5859 5a5b 5c5d 5e5f            TUVWXYZ[\]^_
10:13:04.695304 IP 10.0.1.1 > 10.0.1.100: ICMP time exceeded in-transit, length 40
	0x0000:  4500 003c 0000 0000 4001 0707 0a00 0101  E..<....@.......
	0x0010:  0a00 0164 0b00 e9ff 0000 0000 0000 0000  ...d............
	0x0020:  0000 0000 0000 0000 0000 0000 0000 0000  ................
	0x0030:  0b00 0000 0000 0000 0000 0000            ............
10:13:04.695309 IP 10.0.1.100.43014 > 192.168.2.2.33447: UDP, length 32
	0x0000:  4500 003c 11db 0000 0511 d5c8 0a00 0164  E..<...........d
	0x0010:  c0a8 0202 a806 82a7 0028 11dd 4041 4243  .........(..@ABC
	0x0020:  4445 4647 4849 4a4b 4c4d 4e4f 5051 5253  DEFGHIJKLMNOPQRS
	0x0030:  5455 5657 5859 5a5b 5c5d 5e5f            TUVWXYZ[\]^_
10:13:04.702754 IP 10.0.1.100.42313 > 192.168.2.2.33443: UDP, length 32
	0x0000:  4500 003c 11d7 0000 0411 d6cc 0a00 0164  E..<...........d
	0x0010:  c0a8 0202 a549 82a3 0028 149e 4041 4243  .....I...(..@ABC
	0x0020:  4445 4647 4849 4a4b 4c4d 4e4f 5051 5253  DEFGHIJKLMNOPQRS
	0x0030:  5455 5657 5859 5a5b 5c5d 5e5f            TUVWXYZ[\]^_
10:13:04.702823 ARP, Reply 192.168.2.2 is-at 12:15:15:7c:2a:26, length 28
	0x0000:  0001 0800 0604 0002 1215 157c 2a26 c0a8  ...........|*&..
	0x0010:  0202 7e3f 98d9 ba6c c0a8 0201            ..~?...l....
10:13:04.702837 IP 10.0.1.100.42313 > 192.168.2.2.33443: UDP, length 32
	0x0000:  4500 003c 11d7 0000 0311 d7cc 0a00 0164  E..<...........d
	0x0010:  c0a8 0202 a549 82a3 0028 149e 4041 4243  .....I...(..@ABC
	0x0020:  4445 4647 4849 4a4b 4c4d 4e4f 5051 5253  DEFGHIJKLMNOPQRS
	0x0030:  5455 5657 5859 5a5b 5c5d 5e5f            TUVWXYZ[\]^_
10:13:04.702843 IP 10.0.1.100.43014 > 192.168.2.2.33447: UDP, length 32
	0x0000:  4500 003c 11db 0000 0411 d6c8 0a00 0164  E..<...........d
	0x0010:  c0a8 0202 a806 82a7 0028 11dd 4041 4243  .........(..@ABC
	0x0020:  4445 4647 4849 4a4b 4c4d 4e4f 5051 5253  DEFGHIJKLMNOPQRS
	0x0030:  5455 5657 5859 5a5b 5c5d 5e5f            TUVWXYZ[\]^_
10:13:04.702848 IP 10.0.1.100.49896 > 192.168.2.2.33445: UDP, length 32
	0x0000:  4500 003c 11d9 0000 0311 d7ca 0a00 0164  E..<...........d
	0x0010:  c0a8 0202 c2e8 82a5 0028 f6fc 4041 4243  .........(..@ABC
	0x0020:  4445 4647 4849 4a4b 4c4d 4e4f 5051 5253  DEFGHIJKLMNOPQRS
	0x0030:  5455 5657 5859 5a5b 5c5d 5e5f            TUVWXYZ[\]^_
10:13:04.702852 IP 10.0.1.100.34699 > 192.168.2.2.33441: UDP, length 32
	0x0000:  4500 003c 11d5 0000 0211 d8ce 0a00 0164  E..<...........d
	0x0010:  c0a8 0202 878b 82a1 0028 325e 4041 4243  .........(2^@ABC
	0x0020:  4445 4647 4849 4a4b 4c4d 4e4f 5051 5253  DEFGHIJKLMNOPQRS
	0x0030:  5455 5657 5859 5a5b 5c5d 5e5f            TUVWXYZ[\]^_
10:13:04.702856 IP 10.0.1.100.51149 > 192.168.2.2.33449: UDP, length 32
	0x0000:  4500 003c 11dd 0000 0511 d5c6 0a00 0164  E..<...........d
	0x0010:  c0a8 0202 c7cd 82a9 0028 f213 4041 4243  .........(..@ABC
	0x0020:  4445 4647 4849 4a4b 4c4d 4e4f 5051 5253  DEFGHIJKLMNOPQRS
	0x0030:  5455 5657 5859 5a5b 5c5d 5e5f            TUVWXYZ[\]^_
10:13:04.702860 IP 10.0.1.100.60714 > 192.168.2.2.33442: UDP, length 32
	0x0000:  4500 003c 11d6 0000 0211 d8cd 0a00 0164  E..<...........d
	0x0010:  c0a8 0202 ed2a 82a2 0028 ccbd 4041 4243  .....*...(..@ABC
	0x0020:  4445 4647 4849 4a4b 4c4d 4e4f 5051 5253  DEFGHIJKLMNOPQRS
	0x0030:  5455 5657 5859 5a5b 5c5d 5e5f            TUVWXYZ[\]^_
10:13:04.702864 IP 10.0.1.100.37757 > 192.168.2.2.33438: UDP, length 32
	0x0000:  4500 003c 11d2 0000 0111 d9d1 0a00 0164  E..<...........d
	0x0010:  c0a8 0202 937d 829e 0028 266f 4041 4243  .....}...(&o@ABC
	0x0020:  4445 4647 4849 4a4b 4c4d 4e4f 5051 5253  DEFGHIJKLMNOPQRS
	0x0030:  5455 5657 5859 5a5b 5c5d 5e5f            TUVWXYZ[\]^_
10:13:04.702868 IP 10.0.1.100.48436 > 192.168.2.2.33440: UDP, length 32
	0x0000:  4500 003c 11d4 0000 0211 d8cf 0a00 0164  E..<...........d
	0x0010:  c0a8 0202 bd34 82a0 0028 fcb5 4041 4243  .....4...(..@ABC
	0x0020:  4445 4647 4849 4a4b 4c4d 4e4f 5051 5253  DEFGHIJKLMNOPQRS
	0x0030:  5455 5657 5859 5a5b 5c5d 5e5f            TUVWXYZ[\]^_
10:13:04.702872 IP 10.0.1.100.57173 > 192.168.2.2.33444: UDP, length 32
	0x0000:  4500 003c 11d8 0000 0311 d7cb 0a00 0164  E..<...........d
	0x0010:  c0a8 0202 df55 82a4 0028 da90 4041 4243  .....U...(..@ABC
	0x0020:  4445 4647 4849 4a4b 4c4d 4e4f 5051 5253  DEFGHIJKLMNOPQRS
	0x0030:  5455 5657 5859 5a5b 5c5d 5e5f            TUVWXYZ[\]^_
10:13:04.702875 IP 10.0.1.100.39339 > 192.168.2.2.33448: UDP, length 32
	0x0000:  4500 003c 11dc 0000 0411 d6c7 0a00 0164  E..<...........d
	0x0010:  c0a8 0202 99ab 82a8 0028 2037 4041 4243  .........(.7@ABC
	0x0020:  4445 4647 4849 4a4b 4c4d 4e4f 5051 5253  DEFGHIJKLMNOPQRS
	0x0030:  5455 5657 5859 5a5b 5c5d 5e5f            TUVWXYZ[\]^_
10:13:04.702879 IP 10.0.1.100.35589 > 192.168.2.2.33446: UDP, length 32
	0x0000:  4500 003c 11da 0000 0411 d6c9 0a00 0164  E..<...........d
	0x0010:  c0a8 0202 8b05 82a6 0028 2edf 4041 4243  .........(..@ABC
	0x0020:  4445 4647 4849 4a4b 4c4d 4e4f 5051 5253  DEFGHIJKLMNOPQRS
	0x0030:  5455 5657 5859 5a5b 5c5d 5e5f            TUVWXYZ[\]^_
10:13:04.702883 IP 10.0.1.100.42905 > 192.168.2.2.33439: UDP, length 32
	0x0000:  4500 003c 11d3 0000 0111 d9d0 0a00 0164  E..<...........d
	0x0010:  c0a8 0202 a799 829f 0028 1252 4041 4243  .........(.R@ABC
	0x0020:  4445 4647 4849 4a4b 4c4d 4e4f 5051 5253  DEFGHIJKLMNOPQRS
	0x0030:  5455 5657 5859 5a5b 5c5d 5e5f            TUVWXYZ[\]^_
10:13:04.702887 IP 10.0.1.100.54669 > 192.168.2.2.33437: UDP, length 32
	0x0000:  4500 003c 11d1 0000 0111 d9d2 0a00 0164  E..<...........d
	0x0010:  c0a8 0202 d58d 829d 0028 e45f 4041 4243  .........(._@ABC
	0x0020:  4445 4647 4849 4a4b 4c4d 4e4f 5051 5253  DEFGHIJKLMNOPQRS
	0x0030:  5455 5657 5859 5a5b 5c5d 5e5f            TUVWXYZ[\]^_
10:13:04.788188 IP 192.168.2.2 > 10.0.1.100: ICMP 192.168.2.2 udp port 33443 unreachable, length 68
	0x0000:  45c0 0058 e6cb 0000 4001 c50b c0a8 0202  E..X....@.......
	0x0010:  0a00 0164 0303 cb44 0000 0000 4500 003c  ...d...D....E..<
	0x0020:  11d7 0000 0311 d7cc 0a00 0164 c0a8 0202  ...........d....
	0x0030:  a549 82a3 0028 149e 4041 4243 4445 4647  .I...(..@ABCDEFG
	0x0040:  4849 4a4b 4c4d 4e4f 5051 5253 5455 5657  HIJKLMNOPQRSTUVW
	0x0050:  5859 5a5b 5c5d 5e5f                      XYZ[\]^_
10:13:04.788242 ARP, Request who-has 10.0.1.100 (ff:ff:ff:ff:ff:ff) tell 10.0.1.1, length 28
	0x0000:  0001 0800 0604 0001 de7b e70f 3bfc 0a00  .........{..;...
	0x0010:  0101 ffff ffff ffff 0a00 0164            ...........d
10:13:04.788252 IP 192.168.2.2 > 10.0.1.100: ICMP 192.168.2.2 udp port 33447 unreachable, length 68
	0x0000:  45c0 0058 e6cc 0000 4001 c50a c0a8 0202  E..X....@.......
	0x0010:  0a00 0164 0303 cb44 0000 0000 4500 003c  ...d...D....E..<
	0x0020:  11db 0000 0411 d6c8 0a00 0164 c0a8 0202  ...........d....
	0x0030:  a806 82a7 0028 11dd 4041 4243 4445 4647  .....(..@ABCDEFG
	0x0040:  4849 4a4b 4c4d 4e4f 5051 5253 5455 5657  HIJKLMNOPQRSTUVW
	0x0050:  5859 5a5b 5c5d 5e5f                      XYZ[\]^_
10:13:04.788282 IP 192.168.2.2 > 10.0.1.100: ICMP 192.168.2.2 udp port 33445 unreachable, length 68
	0x0000:  45c0 0058 e6cd 0000 4001 c509 c0a8 0202  E..X....@.......
	0x0010:  0a00 0164 0303 cb44 0000 0000 4500 003c  ...d...D....E..<
	0x0020:  11d9 0000 0311 d7ca 0a00 0164 c0a8 0202  ...........d....
	0x0030:  c2e8 82a5 0028 f6fc 4041 4243 4445 4647  .....(..@ABCDEFG
	0x0040:  4849 4a4b 4c4d 4e4f 5051 5253 5455 5657  HIJKLMNOPQRSTUVW
	0x0050:  5859 5a5b 5c5d 5e5f                      XYZ[\]^_
10:13:04.788310 IP 192.168.2.2 > 10.0.1.100: ICMP 192.168.2.2 udp port 33441 unreachable, length 68
	0x0000:  45c0 0058 e6ce 0000 4001 c508 c0a8 0202  E..X....@.......
	0x0010:  0a00 0164 0303 cb44 0000 0000 4500 003c  ...d...D....E..<
	0x0020:  11d5 0000 0211 d8ce 0a00 0164 c0a8 0202  ...........d....
	0x0030:  878b 82a1 0028 325e 4041 4243 4445 4647  .....(2^@ABCDEFG
	0x0040:  4849 4a4b 4c4d 4e4f 5051 5253 5455 5657  HIJKLMNOPQRSTUVW
	0x0050:  5859 5a5b 5c5d 5e5f                      XYZ[\]^_
10:13:04.788337 IP 192.168.2.2 > 10.0.1.100: ICMP 192.168.2.2 udp port 33449 unreachable, length 68
	0x0000:  45c0 0058 e6cf 0000 4001 c507 c0a8 0202  E..X....@.......
	0x0010:  0a00 0164 0303 cb44 0000 0000 4500 003c  ...d...D....E..<
	0x0020:  11dd 0000 0511 d5c6 0a00 0164 c0a8 0202  ...........d....
	0x0030:  c7cd 82a9 0028 f213 4041 4243 4445 4647  .....(..@ABCDEFG
	0x0040:  4849 4a4b 4c4d 4e4f 5051 5253 5455 5657  HIJKLMNOPQRSTUVW
	0x0050:  5859 5a5b 5c5d 5e5f                      XYZ[\]^_
10:13:04.788364 IP 192.168.2.2 > 10.0.1.100: ICMP 192.168.2.2 udp port 33442 unreachable, length 68
	0x0000:  45c0 0058 e6d0 0000 4001 c506 c0a8 0202  E..X....@.......
	0x0010:  0a00 0164 0303 cb44 0000 0000 4500 003c  ...d...D....E..<
	0x0020:  11d6 0000 0211 d8cd 0a00 0164 c0a8 0202  ...........d....
	0x0030:  ed2a 82a2 0028 ccbd 4041 4243 4445 4647  .*...(..@ABCDEFG
	0x0040:  4849 4a4b 4c4d 4e4f 5051 5253 5455 5657  HIJKLMNOPQRSTUVW
	0x0050:  5859 5a5b 5c5d 5e5f                      XYZ[\]^_
10:13:04.792029 ARP, Reply 10.0.1.100 is-at 1a:e8:72:b2:b4:a8, length 28
	0x0000:  0001 0800 0604 0002 1ae8 72b2 b4a8 0a00  ..........r.....
	0x0010:  0164 de7b e70f 3bfc 0a00 0101            .d.{..;.....
10:13:04.792046 IP 192.168.2.2 > 10.0.1.100: ICMP 192.168.2.2 udp port 33442 unreachable, length 68
	0x0000:  45c0 0058 e6d0 0000 3f01 c606 c0a8 0202  E..X....?.......
	0x0010:  0a00 0164 0303 cb44 0000 0000 4500 003c  ...d...D....E..<
	0x0020:  11d6 0000 0211 d8cd 0a00 0164 c0a8 0202  ...........d....
	0x0030:  ed2a 82a2 0028 ccbd 4041 4243 4445 4647  .*...(..@ABCDEFG
	0x0040:  4849 4a4b 4c4d 4e4f 5051 5253 5455 5657  HIJKLMNOPQRSTUVW
	0x0050:  5859 5a5b 5c5d 5e5f                      XYZ[\]^_
10:13:04.792053 IP 192.168.2.2 > 10.0.1.100: ICMP 192.168.2.2 udp port 33449 unreachable, length 68
	0x0000:  45c0 0058 e6cf 0000 3f01 c607 c0a8 0202  E..X....?.......
	0x0010:  0a00 0164 0303 cb44 0000 0000 4500 003c  ...d...D....E..<
	0x0020:  11dd 0000 0511 d5c6 0a00 0164 c0a8 0202  ...........d....
	0x0030:  c7cd 82a9 0028 f213 4041 4243 4445 4647  .....(..@ABCDEFG
	0x0040:  4849 4a4b 4c4d 4e4f 5051 5253 5455 5657  HIJKLMNOPQRSTUVW
	0x0050:  5859 5a5b 5c5d 5e5f                      XYZ[\]^_
10:13:04.792062 IP 192.168.2.2 > 10.0.1.100: ICMP 192.168.2.2 udp port 33441 unreachable, length 68
	0x0000:  45c0 0058 e6ce 0000 3f01 c608 c0a8 0202  E..X....?.......
	0x0010:  0a00 0164 0303 cb44 0000 0000 4500 003c  ...d...D....E..<
	0x0020:  11d5 0000 0211 d8ce 0a00 0164 c0a8 0202  ...........d....
	0x0030:  878b 82a1 0028 325e 4041 4243 4445 4647  .....(2^@ABCDEFG
	0x0040:  4849 4a4b 4c4d 4e4f 5051 5253 5455 5657  HIJKLMNOPQRSTUVW
	0x0050:  5859 5a5b 5c5d 5e5f                      XYZ[\]^_
10:13:04.792065 IP 192.168.2.2 > 10.0.1.100: ICMP 192.168.2.2 udp port 33445 unreachable, length 68
	0x0000:  45c0 0058 e6cd 0000 3f01 c609 c0a8 0202  E..X....?.......
	0x0010:  0a00 0164 0303 cb44 0000 0000 4500 003c  ...d...D....E..<
	0x0020:  11d9 0000 0311 d7ca 0a00 0164 c0a8 0202  ...........d....
	0x0030:  c2e8 82a5 0028 f6fc 4041 4243 4445 4647  .....(..@ABCDEFG
	0x0040:  4849 4a4b 4c4d 4e4f 5051 5253 5455 5657  HIJKLMNOPQRSTUVW
	0x0050:  5859 5a5b 5c5d 5e5f                      XYZ[\]^_
10:13:04.792067 IP 192.168.2.2 > 10.0.1.100: ICMP 192.168.2.2 udp port 33447 unreachable, length 68
	0x0000:  45c0 0058 e6cc 0000 3f01 c60a c0a8 0202  E..X....?.......
	0x0010:  0a00 0164 0303 cb44 0000 0000 4500 003c  ...d...D....E..<
	0x0020:  11db 0000 0411 d6c8 0a00 0164 c0a8 0202  ...........d....
	0x0030:  a806 82a7 0028 11dd 4041 4243 4445 4647  .....(..@ABCDEFG
	0x0040:  4849 4a4b 4c4d 4e4f 5051 5253 5455 5657  HIJKLMNOPQRSTUVW
	0x0050:  5859 5a5b 5c5d 5e5f                      XYZ[\]^_
10:13:04.792070 IP 192.168.2.2 > 10.0.1.100: ICMP 192.168.2.2 udp port 33443 unreachable, length 68
	0x0000:  45c0 0058 e6cb 0000 3f01 c60b c0a8 0202  E..X....?.......
	0x0010:  0a00 0164 0303 cb44 0000 0000 4500 003c  ...d...D....E..<
	0x0020:  11d7 0000 0311 d7cc 0a00 0164 c0a8 0202  ...........d....
	0x0030:  a549 82a3 0028 149e 4041 4243 4445 4647  .I...(..@ABCDEFG
	0x0040:  4849 4a4b 4c4d 4e4f 5051 5253 5455 5657  HIJKLMNOPQRSTUVW
	0x0050:  5859 5a5b 5c5d 5e5f                      XYZ[\]^_
10:13:09.795788 ARP, Request who-has 192.168.2.1 tell 192.168.2.2, length 28
	0x0000:  0001 0800 0604 0001 1215 157c 2a26 c0a8  ...........|*&..
	0x0010:  0202 0000 0000 0000 c0a8 0201            ............
10:13:09.795893 ARP, Reply 192.168.2.1 is-at 7e:3f:98:d9:ba:6c, length 28
	0x0000:  0001 0800 0604 0002 7e3f 98d9 ba6c c0a8  ........~?...l..
	0x0010:  0201 1215 157c 2a26 c0a8 0202            .....|*&....

