reading from file solution_traceroute_2.pcap, link-type EN10MB (Ethernet)
10:15:15.783717 ARP, Request who-has 10.0.1.1 tell 10.0.1.100, length 28
	0x0000:  0001 0800 0604 0001 1ae8 72b2 b4a8 0a00  ..........r.....
	0x0010:  0164 0000 0000 0000 0a00 0101            .d..........
10:15:15.783851 ARP, Reply 10.0.1.1 is-at de:7b:e7:0f:3b:fc, length 28
	0x0000:  0001 0800 0604 0002 de7b e70f 3bfc 0a00  .........{..;...
	0x0010:  0101 1ae8 72b2 b4a8 0a00 0164            ....r......d
10:15:15.807638 IP 10.0.1.100.43210 > 192.168.2.2.33441: UDP, length 32
	0x0000:  4500 003c 11e5 0000 0311 d7be 0a00 0164  E..<...........d
	0x0010:  c0a8 0202 a8ca 82a1 0028 111f 4041 4243  .........(..@ABC
	0x0020:  4445 4647 4849 4a4b 4c4d 4e4f 5051 5253  DEFGHIJKLMNOPQRS
	0x0030:  5455 5657 5859 5a5b 5c5d 5e5f            TUVWXYZ[\]^_
10:15:15.807767 ARP, Request who-has 192.168.2.2 tell 192.168.2.1, length 28
	0x0000:  0001 0800 0604 0001 7e3f 98d9 ba6c c0a8  ........~?...l..
	0x0010:  0201 0000 0000 0000 c0a8 0202            ............
10:15:15.823413 IP 10.0.1.100.56445 > 192.168.2.2.33438: UDP, length 32
	0x0000:  4500 003c 11e2 0000 0211 d8c1 0a00 0164  E..<...........d
	0x0010:  c0a8 0202 dc7d 829e 0028 dd6e 4041 4243  .....}...(.n@ABC
	0x0020:  4445 4647 4849 4a4b 4c4d 4e4f 5051 5253  DEFGHIJKLMNOPQRS
	0x0030:  5455 5657 5859 5a5b 5c5d 5e5f            TUVWXYZ[\]^_
10:15:15.823548 IP 10.0.1.100.43120 > 192.168.2.2.33449: UDP, length 32
	0x0000:  4500 003c 11ed 0000 0611 d4b6 0a00 0164  E..<...........d
	0x0010:  c0a8 0202 a870 82a9 0028 1171 4041 4243  .....p...(.q@ABC
	0x0020:  4445 4647 4849 4a4b 4c4d 4e4f 5051 5253  DEFGHIJKLMNOPQRS
	0x0030:  5455 5657 5859 5a5b 5c5d 5e5f            TUVWXYZ[\]^_
10:15:15.864883 IP 10.0.1.100.42408 > 192.168.2.2.33440: UDP, length 32
	0x0000:  4500 003c 11e4 0000 0311 d7bf 0a00 0164  E..<...........d
	0x0010:  c0a8 0202 a5a8 82a0 0028 1442 4041 4243  .........(.B@ABC
	0x0020:  4445 4647 4849 4a4b 4c4d 4e4f 5051 5253  DEFGHIJKLMNOPQRS
	0x0030:  5455 5657 5859 5a5b 5c5d 5e5f            TUVWXYZ[\]^_
10:15:15.864981 IP 10.0.1.100.47775 > 192.168.2.2.33444: UDP, length 32
	0x0000:  4500 003c 11e8 0000 0411 d6bb 0a00 0164  E..<...........d
	0x0010:  c0a8 0202 ba9f 82a4 0028 ff46 4041 4243  .........(.F@ABC
	0x0020:  4445 4647 4849 4a4b 4c4d 4e4f 5051 5253  DEFGHIJKLMNOPQRS
	0x0030:  5455 5657 5859 5a5b 5c5d 5e5f            TUVWXYZ[\]^_
10:15:15.864986 IP 10.0.1.100.44041 > 192.168.2.2.33446: UDP, length 32
	0x0000:  4500 003c 11ea 0000 0511 d5b9 0a00 0164  E..<...........d
	0x0010:  c0a8 0202 ac09 82a6 0028 0ddb 4041 4243  .........(..@ABC
	0x0020:  4445 4647 4849 4a4b 4c4d 4e4f 5051 5253  DEFGHIJKLMNOPQRS
	0x0030:  5455 5657 5859 5a5b 5c5d 5e5f            TUVWXYZ[\]^_
10:15:15.864991 IP 10.0.1.100.44168 > 192.168.2.2.33442: UDP, length 32
	0x0000:  4500 003c 11e6 0000 0311 d7bd 0a00 0164  E..<...........d
	0x0010:  c0a8 0202 ac88 82a2 0028 0d60 4041 4243  .........(.`@ABC
	0x0020:  4445 4647 4849 4a4b 4c4d 4e4f 5051 5253  DEFGHIJKLMNOPQRS
	0x0030:  5455 5657 5859 5a5b 5c5d 5e5f            TUVWXYZ[\]^_
10:15:15.872762 IP 10.0.1.100.41150 > 192.168.2.2.33434: UDP, length 32
	0x0000:  4500 003c 11de 0000 0111 d9c5 0a00 0164  E..<...........d
	0x0010:  c0a8 0202 a0be 829a 0028 1932 4041 4243  .........(.2@ABC
	0x0020:  4445 4647 4849 4a4b 4c4d 4e4f 5051 5253  DEFGHIJKLMNOPQRS
	0x0030:  5455 5657 5859 5a5b 5c5d 5e5f            TUVWXYZ[\]^_
10:15:15.872834 IP 10.0.1.1 > 10.0.1.100: ICMP time exceeded in-transit, length 36
	0x0000:  4500 0038 0000 4000 ff01 6560 0a00 0101  E..8..@...e`....
	0x0010:  0a00 0164 0b00 b84c 0000 0000 4500 003c  ...d...L....E..<
	0x0020:  11de 0000 0111 d9c5 0a00 0164 c0a8 0202  ...........d....
	0x0030:  a0be 829a 0028 1932                      .....(.2
10:15:15.872886 IP 10.0.1.100.58310 > 192.168.2.2.33445: UDP, length 32
	0x0000:  4500 003c 11e9 0000 0411 d6ba 0a00 0164  E..<...........d
	0x0010:  c0a8 0202 e3c6 82a5 0028 d61e 4041 4243  .........(..@ABC
	0x0020:  4445 4647 4849 4a4b 4c4d 4e4f 5051 5253  DEFGHIJKLMNOPQRS
	0x0030:  5455 5657 5859 5a5b 5c5d 5e5f            TUVWXYZ[\]^_
10:15:15.872912 IP 10.0.1.100.55501 > 192.168.2.2.33447: UDP, length 32
	0x0000:  4500 003c 11eb 0000 0511 d5b8 0a00 0164  E..<...........d
	0x0010:  c0a8 0202 d8cd 82a7 0028 e115 4041 4243  .........(..@ABC
	0x0020:  4445 4647 4849 4a4b 4c4d 4e4f 5051 5253  DEFGHIJKLMNOPQRS
	0x0030:  5455 5657 5859 5a5b 5c5d 5e5f            TUVWXYZ[\]^_
10:15:15.883946 IP 10.0.1.100.43814 > 192.168.2.2.33436: UDP, length 32
	0x0000:  4500 003c 11e0 0000 0111 d9c3 0a00 0164  E..<...........d
	0x0010:  c0a8 0202 ab26 829c 0028 0ec8 4041 4243  .....&...(..@ABC
	0x0020:  4445 4647 4849 4a4b 4c4d 4e4f 5051 5253  DEFGHIJKLMNOPQRS
	0x0030:  5455 5657 5859 5a5b 5c5d 5e5f            TUVWXYZ[\]^_
10:15:15.885553 IP 10.0.1.1 > 10.0.1.100: ICMP time exceeded in-transit, length 36
	0x0000:  4500 0038 0000 4000 ff01 6560 0a00 0101  E..8..@...e`....
	0x0010:  0a00 0164 0b00 b84c 0000 0000 4500 003c  ...d...L....E..<
	0x0020:  11e0 0000 0111 d9c3 0a00 0164 c0a8 0202  ...........d....
	0x0030:  ab26 829c 0028 0ec8                      .&...(..
10:15:15.885685 IP 10.0.1.100.36983 > 192.168.2.2.33448: UDP, length 32
	0x0000:  4500 003c 11ec 0000 0511 d5b7 0a00 0164  E..<...........d
	0x0010:  c0a8 0202 9077 82a8 0028 296b 4041 4243  .....w...()k@ABC
	0x0020:  4445 4647 4849 4a4b 4c4d 4e4f 5051 5253  DEFGHIJKLMNOPQRS
	0x0030:  5455 5657 5859 5a5b 5c5d 5e5f            TUVWXYZ[\]^_
10:15:15.885950 IP 10.0.1.100.51394 > 192.168.2.2.33439: UDP, length 32
	0x0000:  4500 003c 11e3 0000 0211 d8c0 0a00 0164  E..<...........d
	0x0010:  c0a8 0202 c8c2 829f 0028 f128 4041 4243  .........(.(@ABC
	0x0020:  4445 4647 4849 4a4b 4c4d 4e4f 5051 5253  DEFGHIJKLMNOPQRS
	0x0030:  5455 5657 5859 5a5b 5c5d 5e5f            TUVWXYZ[\]^_
10:15:15.886214 IP 10.0.1.100.43524 > 192.168.2.2.33437: UDP, length 32
	0x0000:  4500 003c 11e1 0000 0211 d8c2 0a00 0164  E..<...........d
	0x0010:  c0a8 0202 aa04 829d 0028 0fe9 4041 4243  .........(..@ABC
	0x0020:  4445 4647 4849 4a4b 4c4d 4e4f 5051 5253  DEFGHIJKLMNOPQRS
	0x0030:  5455 5657 5859 5a5b 5c5d 5e5f            TUVWXYZ[\]^_
10:15:15.894415 IP 10.0.1.100.56049 > 192.168.2.2.33435: UDP, length 32
	0x0000:  4500 003c 11df 0000 0111 d9c4 0a00 0164  E..<...........d
	0x0010:  c0a8 0202 daf1 829b 0028 defd 4041 4243  .........(..@ABC
	0x0020:  4445 4647 4849 4a4b 4c4d 4e4f 5051 5253  DEFGHIJKLMNOPQRS
	0x0030:  5455 5657 5859 5a5b 5c5d 5e5f            TUVWXYZ[\]^_
10:15:15.894492 IP 10.0.1.1 > 10.0.1.100: ICMP time exceeded in-transit, length 36
	0x0000:  4500 0038 0000 4000 ff01 6560 0a00 0101  E..8..@...e`....
	0x0010:  0a00 0164 0b00 b84c 0000 0000 4500 003c  ...d...L....E..<
	0x0020:  11df 0000 0111 d9c4 0a00 0164 c0a8 0202  ...........d....
	0x0030:  daf1 829b 0028 defd                      .....(..
10:15:15.894504 IP 10.0.1.100.39314 > 192.168.2.2.33443: UDP, length 32
	0x0000:  4500 003c 11e7 0000 0411 d6bc 0a00 0164  E..<...........d
	0x0010:  c0a8 0202 9992 82a3 0028 2055 4041 4243  .........(.U@ABC
	0x0020:  4445 4647 4849 4a4b 4c4d 4e4f 5051 5253  DEFGHIJKLMNOPQRS
	0x0030:  5455 5657 5859 5a5b 5c5d 5e5f            TUVWXYZ[\]^_
10:15:15.902116 ARP, Reply 192.168.2.2 is-at 12:15:15:7c:2a:26, length 28
	0x0000:  0001 0800 0604 0002 1215 157c 2a26 c0a8  ...........|*&..
	0x0010:  0202 7e3f 98d9 ba6c c0a8 0201            ..~?...l....
10:15:15.902190 IP 10.0.1.100.39314 > 192.168.2.2.33443: UDP, length 32
	0x0000:  4500 003c 11e7 0000 0311 d7bc 0a00 0164  E..<...........d
	0x0010:  c0a8 0202 9992 82a3 0028 2055 4041 4243  .........(.U@ABC
	0x0020:  4445 4647 4849 4a4b 4c4d 4e4f 5051 5253  DEFGHIJKLMNOPQRS
	0x0030:  5455 5657 5859 5a5b 5c5d 5e5f            TUVWXYZ[\]^_
10:15:15.902241 IP 10.0.1.100.43524 > 192.168.2.2.33437: UDP, length 32
	0x0000:  4500 003c 11e1 0000 0111 d9c2 0a00 0164  E..<...........d
	0x0010:  c0a8 0202 aa04 829d 0028 0fe9 4041 4243  .........(..@ABC
	0x0020:  4445 4647 4849 4a4b 4c4d 4e4f 5051 5253  DEFGHIJKLMNOPQRS
	0x0030:  5455 5657 5859 5a5b 5c5d 5e5f            TUVWXYZ[\]^_
10:15:15.902254 IP 10.0.1.100.51394 > 192.168.2.2.33439: UDP, length 32
	0x0000:  4500 003c 11e3 0000 0111 d9c0 0a00 0164  E..<...........d
	0x0010:  c0a8 0202 c8c2 829f 0028 f128 4041 4243  .........(.(@ABC
	0x0020:  4445 4647 4849 4a4b 4c4d 4e4f 5051 5253  DEFGHIJKLMNOPQRS
	0x0030:  5455 5657 5859 5a5b 5c5d 5e5f            TUVWXYZ[\]^_
10:15:15.902264 IP 10.0.1.100.36983 > 192.168.2.2.33448: UDP, length 32
	0x0000:  4500 003c 11ec 0000 0411 d6b7 0a00 0164  E..<...........d
	0x0010:  c0a8 0202 9077 82a8 0028 296b 4041 4243  .....w...()k@ABC
	0x0020:  4445 4647 4849 4a4b 4c4d 4e4f 5051 5253  DEFGHIJKLMNOPQRS
	0x0030:  5455 5657 5859 5a5b 5c5d 5e5f            TUVWXYZ[\]^_
10:15:15.902273 IP 10.0.1.100.55501 > 192.168.2.2.33447: UDP, length 32
	0x0000:  4500 003c 11eb 0000 0411 d6b8 0a00 0164  E..<...........d
	0x0010:  c0a8 0202 d8cd 82a7 0028 e115 4041 4243  .........(..@ABC
	0x0020:  4445 4647 4849 4a4b 4c4d 4e4f 5051 5253  DEFGHIJKLMNOPQRS
	0x0030:  5455 5657 5859 5a5b 5c5d 5e5f            TUVWXYZ[\]^_
10:15:15.902280 IP 10.0.1.100.58310 > 192.168.2.2.33445: UDP, length 32
	0x0000:  4500 003c 11e9 0000 0311 d7ba 0a00 0164  E..<...........d
	0x0010:  c0a8 0202 e3c6 82a5 0028 d61e 4041 4243  .........(..@ABC
	0x0020:  4445 4647 4849 4a4b 4c4d 4e4f 5051 5253  DEFGHIJKLMNOPQRS
	0x0030:  5455 5657 5859 5a5b 5c5d 5e5f            TUVWXYZ[\]^_
10:15:15.902287 IP 10.0.1.100.44168 > 192.168.2.2.33442: UDP, length 32
	0x0000:  4500 003c 11e6 0000 0211 d8bd 0a00 0164  E..<...........d
	0x0010:  c0a8 0202 ac88 82a2 0028 0d60 4041 4243  .........(.`@ABC
	0x0020:  4445 4647 4849 4a4b 4c4d 4e4f 5051 5253  DEFGHIJKLMNOPQRS
	0x0030:  5455 5657 5859 5a5b 5c5d 5e5f            TUVWXYZ[\]^_
10:15:15.902293 IP 10.0.1.100.44041 > 192.168.2.2.33446: UDP, length 32
	0x0000:  4500 003c 11ea 0000 0411 d6b9 0a00 0164  E..<...........d
	0x0010:  c0a8 0202 ac09 82a6 0028 0ddb 4041 4243  .........(..@ABC
	0x0020:  4445 4647 4849 4a4b 4c4d 4e4f 5051 5253  DEFGHIJKLMNOPQRS
	0x0030:  5455 5657 5859 5a5b 5c5d 5e5f            TUVWXYZ[\]^_
10:15:15.902299 IP 10.0.1.100.47775 > 192.168.2.2.33444: UDP, length 32
	0x0000:  4500 003c 11e8 0000 0311 d7bb 0a00 0164  E..<...........d
	0x0010:  c0a8 0202 ba9f 82a4 0028 ff46 4041 4243  .........(.F@ABC
	0x0020:  4445 4647 4849 4a4b 4c4d 4e4f 5051 5253  DEFGHIJKLMNOPQRS
	0x0030:  5455 5657 5859 5a5b 5c5d 5e5f            TUVWXYZ[\]^_
10:15:15.902304 IP 10.0.1.100.42408 > 192.168.2.2.33440: UDP, length 32
	0x0000:  4500 003c 11e4 0000 0211 d8bf 0a00 0164  E..<...........d
	0x0010:  c0a8 0202 a5a8 82a0 0028 1442 4041 4243  .........(.B@ABC
	0x0020:  4445 4647 4849 4a4b 4c4d 4e4f 5051 5253  DEFGHIJKLMNOPQRS
	0x0030:  5455 5657 5859 5a5b 5c5d 5e5f            TUVWXYZ[\]^_
10:15:15.902308 IP 10.0.1.100.43120 > 192.168.2.2.33449: UDP, length 32
	0x0000:  4500 003c 11ed 0000 0511 d5b6 0a00 0164  E..<...........d
	0x0010:  c0a8 0202 a870 82a9 0028 1171 4041 4243  .....p...(.q@ABC
	0x0020:  4445 4647 4849 4a4b 4c4d 4e4f 5051 5253  DEFGHIJKLMNOPQRS
	0x0030:  5455 5657 5859 5a5b 5c5d 5e5f            TUVWXYZ[\]^_
10:15:15.902313 IP 10.0.1.100.56445 > 192.168.2.2.33438: UDP, length 32
	0x0000:  4500 003c 11e2 0000 0111 d9c1 0a00 0164  E..<...........d
	0x0010:  c0a8 0202 dc7d 829e 0028 dd6e 4041 4243  .....}...(.n@ABC
	0x0020:  4445 4647 4849 4a4b 4c4d 4e4f 5051 5253  DEFGHIJKLMNOPQRS
	0x0030:  5455 5657 5859 5a5b 5c5d 5e5f            TUVWXYZ[\]^_
10:15:15.902317 IP 10.0.1.100.43210 > 192.168.2.2.33441: UDP, length 32
	0x0000:  4500 003c 11e5 0000 0211 d8be 0a00 0164  E..<...........d
	0x0010:  c0a8 0202 a8ca 82a1 0028 111f 4041 4243  .........(..@ABC
	0x0020:  4445 4647 4849 4a4b 4c4d 4e4f 5051 5253  DEFGHIJKLMNOPQRS
	0x0030:  5455 5657 5859 5a5b 5c5d 5e5f            TUVWXYZ[\]^_
10:15:15.907566 IP 10.0.1.100.60405 > 192.168.2.2.33450: UDP, length 32
	0x0000:  4500 003c 11ee 0000 0611 d4b5 0a00 0164  E..<...........d
	0x0010:  c0a8 0202 ebf5 82aa 0028 cdea 4041 4243  .........(..@ABC
	0x0020:  4445 4647 4849 4a4b 4c4d 4e4f 5051 5253  DEFGHIJKLMNOPQRS
	0x0030:  5455 5657 5859 5a5b 5c5d 5e5f            TUVWXYZ[\]^_
10:15:15.907579 IP 10.0.1.100.60405 > 192.168.2.2.33450: UDP, length 32
	0x0000:  4500 003c 11ee 0000 0511 d5b5 0a00 0164  E..<...........d
	0x0010:  c0a8 0202 ebf5 82aa 0028 cdea 4041 4243  .........(..@ABC
	0x0020:  4445 4647 4849 4a4b 4c4d 4e4f 5051 5253  DEFGHIJKLMNOPQRS
	0x0030:  5455 5657 5859 5a5b 5c5d 5e5f            TUVWXYZ[\]^_
10:15:15.907583 IP 10.0.1.100.55393 > 192.168.2.2.33451: UDP, length 32
	0x0000:  4500 003c 11ef 0000 0611 d4b4 0a00 0164  E..<...........d
	0x0010:  c0a8 0202 d861 82ab 0028 e17d 4041 4243  .....a...(.}@ABC
	0x0020:  4445 4647 4849 4a4b 4c4d 4e4f 5051 5253  DEFGHIJKLMNOPQRS
	0x0030:  5455 5657 5859 5a5b 5c5d 5e5f            TUVWXYZ[\]^_
10:15:15.907586 IP 10.0.1.100.55393 > 192.168.2.2.33451: UDP, length 32
	0x0000:  4500 003c 11ef 0000 0511 d5b4 0a00 0164  E..<...........d
	0x0010:  c0a8 0202 d861 82ab 0028 e17d 4041 4243  .....a...(.}@ABC
	0x0020:  4445 4647 4849 4a4b 4c4d 4e4f 5051 5253  DEFGHIJKLMNOPQRS
	0x0030:  5455 5657 5859 5a5b 5c5d 5e5f            TUVWXYZ[\]^_
10:15:15.978517 IP 192.168.2.2 > 10.0.1.100: ICMP 192.168.2.2 udp port 33443 unreachable, length 68
	0x0000:  45c0 0058 e6d1 0000 4001 c505 c0a8 0202  E..X....@.......
	0x0010:  0a00 0164 0303 cb44 0000 0000 4500 003c  ...d...D....E..<
	0x0020:  11e7 0000 0311 d7bc 0a00 0164 c0a8 0202  ...........d....
	0x0030:  9992 82a3 0028 2055 4041 4243 4445 4647  .....(.U@ABCDEFG
	0x0040:  4849 4a4b 4c4d 4e4f 5051 5253 5455 5657  HIJKLMNOPQRSTUVW
	0x0050:  5859 5a5b 5c5d 5e5f                      XYZ[\]^_
10:15:15.978564 IP 192.168.2.2 > 10.0.1.100: ICMP 192.168.2.2 udp port 33443 unreachable, length 68
	0x0000:  45c0 0058 e6d1 0000 3f01 c605 c0a8 0202  E..X....?.......
	0x0010:  0a00 0164 0303 cb44 0000 0000 4500 003c  ...d...D....E..<
	0x0020:  11e7 0000 0311 d7bc 0a00 0164 c0a8 0202  ...........d....
	0x0030:  9992 82a3 0028 2055 4041 4243 4445 4647  .....(.U@ABCDEFG
	0x0040:  4849 4a4b 4c4d 4e4f 5051 5253 5455 5657  HIJKLMNOPQRSTUVW
	0x0050:  5859 5a5b 5c5d 5e5f                      XYZ[\]^_
10:15:15.978578 IP 192.168.2.2 > 10.0.1.100: ICMP 192.168.2.2 udp port 33437 unreachable, length 68
	0x0000:  45c0 0058 e6d2 0000 4001 c504 c0a8 0202  E..X....@.......
	0x0010:  0a00 0164 0303 cb44 0000 0000 4500 003c  ...d...D....E..<
	0x0020:  11e1 0000 0111 d9c2 0a00 0164 c0a8 0202  ...........d....
	0x0030:  aa04 829d 0028 0fe9 4041 4243 4445 4647  .....(..@ABCDEFG
	0x0040:  4849 4a4b 4c4d 4e4f 5051 5253 5455 5657  HIJKLMNOPQRSTUVW
	0x0050:  5859 5a5b 5c5d 5e5f                      XYZ[\]^_
10:15:15.978583 IP 192.168.2.2 > 10.0.1.100: ICMP 192.168.2.2 udp port 33437 unreachable, length 68
	0x0000:  45c0 0058 e6d2 0000 3f01 c604 c0a8 0202  E..X....?.......
	0x0010:  0a00 0164 0303 cb44 0000 0000 4500 003c  ...d...D....E..<
	0x0020:  11e1 0000 0111 d9c2 0a00 0164 c0a8 0202  ...........d....
	0x0030:  aa04 829d 0028 0fe9 4041 4243 4445 4647  .....(..@ABCDEFG
	0x0040:  4849 4a4b 4c4d 4e4f 5051 5253 5455 5657  HIJKLMNOPQRSTUVW
	0x0050:  5859 5a5b 5c5d 5e5f                      XYZ[\]^_
10:15:15.978590 IP 192.168.2.2 > 10.0.1.100: ICMP 192.168.2.2 udp port 33439 unreachable, length 68
	0x0000:  45c0 0058 e6d3 0000 4001 c503 c0a8 0202  E..X....@.......
	0x0010:  0a00 0164 0303 cb44 0000 0000 4500 003c  ...d...D....E..<
	0x0020:  11e3 0000 0111 d9c0 0a00 0164 c0a8 0202  ...........d....
	0x0030:  c8c2 829f 0028 f128 4041 4243 4445 4647  .....(.(@ABCDEFG
	0x0040:  4849 4a4b 4c4d 4e4f 5051 5253 5455 5657  HIJKLMNOPQRSTUVW
	0x0050:  5859 5a5b 5c5d 5e5f                      XYZ[\]^_
10:15:15.978595 IP 192.168.2.2 > 10.0.1.100: ICMP 192.168.2.2 udp port 33439 unreachable, length 68
	0x0000:  45c0 0058 e6d3 0000 3f01 c603 c0a8 0202  E..X....?.......
	0x0010:  0a00 0164 0303 cb44 0000 0000 4500 003c  ...d...D....E..<
	0x0020:  11e3 0000 0111 d9c0 0a00 0164 c0a8 0202  ...........d....
	0x0030:  c8c2 829f 0028 f128 4041 4243 4445 4647  .....(.(@ABCDEFG
	0x0040:  4849 4a4b 4c4d 4e4f 5051 5253 5455 5657  HIJKLMNOPQRSTUVW
	0x0050:  5859 5a5b 5c5d 5e5f                      XYZ[\]^_
10:15:15.978607 IP 192.168.2.2 > 10.0.1.100: ICMP 192.168.2.2 udp port 33448 unreachable, length 68
	0x0000:  45c0 0058 e6d4 0000 4001 c502 c0a8 0202  E..X....@.......
	0x0010:  0a00 0164 0303 cb44 0000 0000 4500 003c  ...d...D....E..<
	0x0020:  11ec 0000 0411 d6b7 0a00 0164 c0a8 0202  ...........d....
	0x0030:  9077 82a8 0028 296b 4041 4243 4445 4647  .w...()k@ABCDEFG
	0x0040:  4849 4a4b 4c4d 4e4f 5051 5253 5455 5657  HIJKLMNOPQRSTUVW
	0x0050:  5859 5a5b 5c5d 5e5f                      XYZ[\]^_
10:15:15.978611 IP 192.168.2.2 > 10.0.1.100: ICMP 192.168.2.2 udp port 33448 unreachable, length 68
	0x0000:  45c0 0058 e6d4 0000 3f01 c602 c0a8 0202  E..X....?.......
	0x0010:  0a00 0164 0303 cb44 0000 0000 4500 003c  ...d...D....E..<
	0x0020:  11ec 0000 0411 d6b7 0a00 0164 c0a8 0202  ...........d....
	0x0030:  9077 82a8 0028 296b 4041 4243 4445 4647  .w...()k@ABCDEFG
	0x0040:  4849 4a4b 4c4d 4e4f 5051 5253 5455 5657  HIJKLMNOPQRSTUVW
	0x0050:  5859 5a5b 5c5d 5e5f                      XYZ[\]^_
10:15:15.978616 IP 192.168.2.2 > 10.0.1.100: ICMP 192.168.2.2 udp port 33447 unreachable, length 68
	0x0000:  45c0 0058 e6d5 0000 4001 c501 c0a8 0202  E..X....@.......
	0x0010:  0a00 0164 0303 cb44 0000 0000 4500 003c  ...d...D....E..<
	0x0020:  11eb 0000 0411 d6b8 0a00 0164 c0a8 0202  ...........d....
	0x0030:  d8cd 82a7 0028 e115 4041 4243 4445 4647  .....(..@ABCDEFG
	0x0040:  4849 4a4b 4c4d 4e4f 5051 5253 5455 5657  HIJKLMNOPQRSTUVW
	0x0050:  5859 5a5b 5c5d 5e5f                      XYZ[\]^_
10:15:15.978620 IP 192.168.2.2 > 10.0.1.100: ICMP 192.168.2.2 udp port 33447 unreachable, length 68
	0x0000:  45c0 0058 e6d5 0000 3f01 c601 c0a8 0202  E..X....?.......
	0x0010:  0a00 0164 0303 cb44 0000 0000 4500 003c  ...d...D....E..<
	0x0020:  11eb 0000 0411 d6b8 0a00 0164 c0a8 0202  ...........d....
	0x0030:  d8cd 82a7 0028 e115 4041 4243 4445 4647  .....(..@ABCDEFG
	0x0040:  4849 4a4b 4c4d 4e4f 5051 5253 5455 5657  HIJKLMNOPQRSTUVW
	0x0050:  5859 5a5b 5c5d 5e5f                      XYZ[\]^_
10:15:15.978625 IP 192.168.2.2 > 10.0.1.100: ICMP 192.168.2.2 udp port 33445 unreachable, length 68
	0x0000:  45c0 0058 e6d6 0000 4001 c500 c0a8 0202  E..X....@.......
	0x0010:  0a00 0164 0303 cb44 0000 0000 4500 003c  ...d...D....E..<
	0x0020:  11e9 0000 0311 d7ba 0a00 0164 c0a8 0202  ...........d....
	0x0030:  e3c6 82a5 0028 d61e 4041 4243 4445 4647  .....(..@ABCDEFG
	0x0040:  4849 4a4b 4c4d 4e4f 5051 5253 5455 5657  HIJKLMNOPQRSTUVW
	0x0050:  5859 5a5b 5c5d 5e5f                      XYZ[\]^_
10:15:15.978628 IP 192.168.2.2 > 10.0.1.100: ICMP 192.168.2.2 udp port 33445 unreachable, length 68
	0x0000:  45c0 0058 e6d6 0000 3f01 c600 c0a8 0202  E..X....?.......
	0x0010:  0a00 0164 0303 cb44 0000 0000 4500 003c  ...d...D....E..<
	0x0020:  11e9 0000 0311 d7ba 0a00 0164 c0a8 0202  ...........d....
	0x0030:  e3c6 82a5 0028 d61e 4041 4243 4445 4647  .....(..@ABCDEFG
	0x0040:  4849 4a4b 4c4d 4e4f 5051 5253 5455 5657  HIJKLMNOPQRSTUVW
	0x0050:  5859 5a5b 5c5d 5e5f                      XYZ[\]^_
10:15:15.978634 IP 10.0.1.100.55204 > 192.168.2.2.33452: UDP, length 32
	0x0000:  4500 003c 11f0 0000 0711 d3b3 0a00 0164  E..<...........d
	0x0010:  c0a8 0202 d7a4 82ac 0028 e239 4041 4243  .........(.9@ABC
	0x0020:  4445 4647 4849 4a4b 4c4d 4e4f 5051 5253  DEFGHIJKLMNOPQRS
	0x0030:  5455 5657 5859 5a5b 5c5d 5e5f            TUVWXYZ[\]^_
10:15:15.978638 IP 10.0.1.100.55204 > 192.168.2.2.33452: UDP, length 32
	0x0000:  4500 003c 11f0 0000 0611 d4b3 0a00 0164  E..<...........d
	0x0010:  c0a8 0202 d7a4 82ac 0028 e239 4041 4243  .........(.9@ABC
	0x0020:  4445 4647 4849 4a4b 4c4d 4e4f 5051 5253  DEFGHIJKLMNOPQRS
	0x0030:  5455 5657 5859 5a5b 5c5d 5e5f            TUVWXYZ[\]^_
10:15:20.829235 ARP, Request who-has 10.0.1.1 tell 10.0.1.100, length 28
	0x0000:  0001 0800 0604 0001 1ae8 72b2 b4a8 0a00  ..........r.....
	0x0010:  0164 0000 0000 0000 0a00 0101            .d..........
10:15:20.829350 ARP, Reply 10.0.1.1 is-at de:7b:e7:0f:3b:fc, length 28
	0x0000:  0001 0800 0604 0002 de7b e70f 3bfc 0a00  .........{..;...
	0x0010:  0101 1ae8 72b2 b4a8 0a00 0164            ....r......d
10:15:20.962169 ARP, Request who-has 192.168.2.1 tell 192.168.2.2, length 28
	0x0000:  0001 0800 0604 0001 1215 157c 2a26 c0a8  ...........|*&..
	0x0010:  0202 0000 0000 0000 c0a8 0201            ............
10:15:20.962245 ARP, Reply 192.168.2.1 is-at 7e:3f:98:d9:ba:6c, length 28
	0x0000:  0001 0800 0604 0002 7e3f 98d9 ba6c c0a8  ........~?...l..
	0x0010:  0201 1215 157c 2a26 c0a8 0202            .....|*&....

